{
  "contractName": "baseContract",
  "abi": [
    {
      "inputs": [
        {
          "internalType": "string",
          "name": "name",
          "type": "string"
        },
        {
          "internalType": "string",
          "name": "mobile_no",
          "type": "string"
        },
        {
          "internalType": "address payable",
          "name": "_address",
          "type": "address"
        }
      ],
      "stateMutability": "nonpayable",
      "type": "constructor"
    },
    {
      "anonymous": false,
      "inputs": [
        {
          "indexed": false,
          "internalType": "address",
          "name": "sender",
          "type": "address"
        }
      ],
      "name": "setUpdate",
      "type": "event"
    },
    {
      "anonymous": false,
      "inputs": [
        {
          "indexed": false,
          "internalType": "address",
          "name": "user_address",
          "type": "address"
        },
        {
          "indexed": false,
          "internalType": "address",
          "name": "sender",
          "type": "address"
        }
      ],
      "name": "userAdded",
      "type": "event"
    },
    {
      "inputs": [],
      "name": "addEther",
      "outputs": [],
      "stateMutability": "payable",
      "type": "function"
    },
    {
      "inputs": [
        {
          "internalType": "address payable",
          "name": "_address",
          "type": "address"
        },
        {
          "internalType": "string",
          "name": "name",
          "type": "string"
        },
        {
          "internalType": "string",
          "name": "mobile_no",
          "type": "string"
        },
        {
          "internalType": "uint256",
          "name": "id",
          "type": "uint256"
        },
        {
          "internalType": "uint256",
          "name": "payment_amt",
          "type": "uint256"
        }
      ],
      "name": "addUser",
      "outputs": [],
      "stateMutability": "nonpayable",
      "type": "function"
    },
    {
      "inputs": [
        {
          "internalType": "uint256",
          "name": "",
          "type": "uint256"
        }
      ],
      "name": "addressUsers",
      "outputs": [
        {
          "internalType": "address payable",
          "name": "",
          "type": "address"
        }
      ],
      "stateMutability": "view",
      "type": "function"
    },
    {
      "inputs": [],
      "name": "getBalance",
      "outputs": [
        {
          "internalType": "uint256",
          "name": "",
          "type": "uint256"
        }
      ],
      "stateMutability": "view",
      "type": "function"
    },
    {
      "inputs": [],
      "name": "getUpdates",
      "outputs": [
        {
          "components": [
            {
              "internalType": "address",
              "name": "_address",
              "type": "address"
            },
            {
              "internalType": "uint256",
              "name": "timestamp",
              "type": "uint256"
            },
            {
              "internalType": "string",
              "name": "update",
              "type": "string"
            },
            {
              "components": [
                {
                  "internalType": "uint256",
                  "name": "flag",
                  "type": "uint256"
                },
                {
                  "internalType": "string",
                  "name": "name",
                  "type": "string"
                },
                {
                  "internalType": "string",
                  "name": "mobile_no",
                  "type": "string"
                },
                {
                  "internalType": "address payable",
                  "name": "account",
                  "type": "address"
                },
                {
                  "internalType": "uint256",
                  "name": "id",
                  "type": "uint256"
                },
                {
                  "internalType": "uint256",
                  "name": "payment_amt",
                  "type": "uint256"
                }
              ],
              "internalType": "struct baseContract.User",
              "name": "user",
              "type": "tuple"
            }
          ],
          "internalType": "struct baseContract.Update[]",
          "name": "",
          "type": "tuple[]"
        }
      ],
      "stateMutability": "view",
      "type": "function"
    },
    {
      "inputs": [
        {
          "internalType": "string",
          "name": "_update",
          "type": "string"
        }
      ],
      "name": "setUpdates",
      "outputs": [],
      "stateMutability": "nonpayable",
      "type": "function"
    },
    {
      "inputs": [
        {
          "internalType": "address payable",
          "name": "_address",
          "type": "address"
        }
      ],
      "name": "userExists",
      "outputs": [
        {
          "internalType": "bool",
          "name": "",
          "type": "bool"
        }
      ],
      "stateMutability": "view",
      "type": "function"
    }
  ],
  "bytecode": "0x60806040523480156200001157600080fd5b5060405162001c6438038062001c648339818101604052810190620000379190620004cd565b60008060008373ffffffffffffffffffffffffffffffffffffffff1673ffffffffffffffffffffffffffffffffffffffff168152602001908152602001600020905060018160000181905550838160010190805190602001906200009d9291906200021b565b5082816002019080519060200190620000b89291906200021b565b506001816004018190555060008160050181905550818160030160006101000a81548173ffffffffffffffffffffffffffffffffffffffff021916908373ffffffffffffffffffffffffffffffffffffffff1602179055506001829080600181540180825580915050600190039060005260206000200160009091909190916101000a81548173ffffffffffffffffffffffffffffffffffffffff021916908373ffffffffffffffffffffffffffffffffffffffff160217905550600073b958766e6c29bd233b58e37557103fafcd02133090508073ffffffffffffffffffffffffffffffffffffffff16633365d35884306040518363ffffffff1660e01b8152600401620001c9929190620005f7565b6020604051808303816000875af1158015620001e9573d6000803e3d6000fd5b505050506040513d601f19601f820116820180604052508101906200020f91906200065f565b505050505050620006f5565b8280546200022990620006c0565b90600052602060002090601f0160209004810192826200024d576000855562000299565b82601f106200026857805160ff191683800117855562000299565b8280016001018555821562000299579182015b82811115620002985782518255916020019190600101906200027b565b5b509050620002a89190620002ac565b5090565b5b80821115620002c7576000816000905550600101620002ad565b5090565b6000604051905090565b600080fd5b600080fd5b600080fd5b600080fd5b6000601f19601f8301169050919050565b7f4e487b7100000000000000000000000000000000000000000000000000000000600052604160045260246000fd5b6200033482620002e9565b810181811067ffffffffffffffff82111715620003565762000355620002fa565b5b80604052505050565b60006200036b620002cb565b905062000379828262000329565b919050565b600067ffffffffffffffff8211156200039c576200039b620002fa565b5b620003a782620002e9565b9050602081019050919050565b60005b83811015620003d4578082015181840152602081019050620003b7565b83811115620003e4576000848401525b50505050565b600062000401620003fb846200037e565b6200035f565b90508281526020810184848401111562000420576200041f620002e4565b5b6200042d848285620003b4565b509392505050565b600082601f8301126200044d576200044c620002df565b5b81516200045f848260208601620003ea565b91505092915050565b600073ffffffffffffffffffffffffffffffffffffffff82169050919050565b6000620004958262000468565b9050919050565b620004a78162000488565b8114620004b357600080fd5b50565b600081519050620004c7816200049c565b92915050565b600080600060608486031215620004e957620004e8620002d5565b5b600084015167ffffffffffffffff8111156200050a5762000509620002da565b5b620005188682870162000435565b935050602084015167ffffffffffffffff8111156200053c576200053b620002da565b5b6200054a8682870162000435565b92505060406200055d86828701620004b6565b9150509250925092565b6000819050919050565b6000620005926200058c620005868462000468565b62000567565b62000468565b9050919050565b6000620005a68262000571565b9050919050565b6000620005ba8262000599565b9050919050565b620005cc81620005ad565b82525050565b6000620005df8262000468565b9050919050565b620005f181620005d2565b82525050565b60006040820190506200060e6000830185620005c1565b6200061d6020830184620005e6565b9392505050565b6000819050919050565b620006398162000624565b81146200064557600080fd5b50565b60008151905062000659816200062e565b92915050565b600060208284031215620006785762000677620002d5565b5b6000620006888482850162000648565b91505092915050565b7f4e487b7100000000000000000000000000000000000000000000000000000000600052602260045260246000fd5b60006002820490506001821680620006d957607f821691505b602082108103620006ef57620006ee62000691565b5b50919050565b61155f80620007056000396000f3fe6080604052600436106100705760003560e01c80638894dd2b1161004e5780638894dd2b14610106578063a8a1d27314610110578063b55f65811461013b578063dd3f79761461016457610070565b80630e666e491461007557806312065fe0146100b257806377d2688a146100dd575b600080fd5b34801561008157600080fd5b5061009c60048036038101906100979190610d45565b6101a1565b6040516100a99190610d8d565b60405180910390f35b3480156100be57600080fd5b506100c76101fe565b6040516100d49190610dc1565b60405180910390f35b3480156100e957600080fd5b5061010460048036038101906100ff9190610f22565b610206565b005b61010e6105c3565b005b34801561011c57600080fd5b506101256105c5565b60405161013291906111ee565b60405180910390f35b34801561014757600080fd5b50610162600480360381019061015d919061123c565b6108c2565b005b34801561017057600080fd5b5061018b600480360381019061018691906112ef565b610b61565b604051610198919061132b565b60405180910390f35b6000806000808473ffffffffffffffffffffffffffffffffffffffff1673ffffffffffffffffffffffffffffffffffffffff16815260200190815260200160002060000154036101f457600090506101f9565b600190505b919050565b600047905090565b61020e610ba0565b33816000019073ffffffffffffffffffffffffffffffffffffffff16908173ffffffffffffffffffffffffffffffffffffffff1681525050428160200181815250508181604001819052506000803373ffffffffffffffffffffffffffffffffffffffff1673ffffffffffffffffffffffffffffffffffffffff1681526020019081526020016000206040518060c0016040529081600082015481526020016001820180546102bc90611375565b80601f01602080910402602001604051908101604052809291908181526020018280546102e890611375565b80156103355780601f1061030a57610100808354040283529160200191610335565b820191906000526020600020905b81548152906001019060200180831161031857829003601f168201915b5050505050815260200160028201805461034e90611375565b80601f016020809104026020016040519081016040528092919081815260200182805461037a90611375565b80156103c75780601f1061039c576101008083540402835291602001916103c7565b820191906000526020600020905b8154815290600101906020018083116103aa57829003601f168201915b505050505081526020016003820160009054906101000a900473ffffffffffffffffffffffffffffffffffffffff1673ffffffffffffffffffffffffffffffffffffffff1673ffffffffffffffffffffffffffffffffffffffff1681526020016004820154815260200160058201548152505081606001819052507f660d40315894f951e27119615133c7c0d2110b3650eaca398155f0bc7850e2f53360405161047191906113b5565b60405180910390a1600281908060018154018082558091505060019003906000526020600020906009020160009091909190915060008201518160000160006101000a81548173ffffffffffffffffffffffffffffffffffffffff021916908373ffffffffffffffffffffffffffffffffffffffff160217905550602082015181600101556040820151816002019080519060200190610512929190610be4565b50606082015181600301600082015181600001556020820151816001019080519060200190610542929190610be4565b50604082015181600201908051906020019061055f929190610be4565b5060608201518160030160006101000a81548173ffffffffffffffffffffffffffffffffffffffff021916908373ffffffffffffffffffffffffffffffffffffffff1602179055506080820151816004015560a08201518160050155505050505050565b565b60606002805480602002602001604051908101604052809291908181526020016000905b828210156108b957838290600052602060002090600902016040518060800160405290816000820160009054906101000a900473ffffffffffffffffffffffffffffffffffffffff1673ffffffffffffffffffffffffffffffffffffffff1673ffffffffffffffffffffffffffffffffffffffff1681526020016001820154815260200160028201805461067c90611375565b80601f01602080910402602001604051908101604052809291908181526020018280546106a890611375565b80156106f55780601f106106ca576101008083540402835291602001916106f5565b820191906000526020600020905b8154815290600101906020018083116106d857829003601f168201915b50505050508152602001600382016040518060c00160405290816000820154815260200160018201805461072890611375565b80601f016020809104026020016040519081016040528092919081815260200182805461075490611375565b80156107a15780601f10610776576101008083540402835291602001916107a1565b820191906000526020600020905b81548152906001019060200180831161078457829003601f168201915b505050505081526020016002820180546107ba90611375565b80601f01602080910402602001604051908101604052809291908181526020018280546107e690611375565b80156108335780601f1061080857610100808354040283529160200191610833565b820191906000526020600020905b81548152906001019060200180831161081657829003601f168201915b505050505081526020016003820160009054906101000a900473ffffffffffffffffffffffffffffffffffffffff1673ffffffffffffffffffffffffffffffffffffffff1673ffffffffffffffffffffffffffffffffffffffff1681526020016004820154815260200160058201548152505081525050815260200190600101906105e9565b50505050905090565b6108cb856101a1565b610b5a5760008060008773ffffffffffffffffffffffffffffffffffffffff1673ffffffffffffffffffffffffffffffffffffffff16815260200190815260200160002090506001816000018190555084816001019080519060200190610933929190610be4565b508381600201908051906020019061094c929190610be4565b50828160040181905550818160050181905550858160030160006101000a81548173ffffffffffffffffffffffffffffffffffffffff021916908373ffffffffffffffffffffffffffffffffffffffff1602179055506001869080600181540180825580915050600190039060005260206000200160009091909190916101000a81548173ffffffffffffffffffffffffffffffffffffffff021916908373ffffffffffffffffffffffffffffffffffffffff160217905550600073b958766e6c29bd233b58e37557103fafcd02133090508073ffffffffffffffffffffffffffffffffffffffff16634ceb48fd8888886040518463ffffffff1660e01b8152600401610a5b93929190611479565b6020604051808303816000875af1158015610a7a573d6000803e3d6000fd5b505050506040513d601f19601f82011682018060405250810190610a9e91906114d3565b508073ffffffffffffffffffffffffffffffffffffffff16633365d35888306040518363ffffffff1660e01b8152600401610ada929190611500565b6020604051808303816000875af1158015610af9573d6000803e3d6000fd5b505050506040513d601f19601f82011682018060405250810190610b1d91906114d3565b507fa37017d0820c39dc09fba9c12e9eb5ca38d99df9c4829c63983a7308f58827ab8733604051610b4f929190611500565b60405180910390a150505b5050505050565b60018181548110610b7157600080fd5b906000526020600020016000915054906101000a900473ffffffffffffffffffffffffffffffffffffffff1681565b6040518060800160405280600073ffffffffffffffffffffffffffffffffffffffff1681526020016000815260200160608152602001610bde610c6a565b81525090565b828054610bf090611375565b90600052602060002090601f016020900481019282610c125760008555610c59565b82601f10610c2b57805160ff1916838001178555610c59565b82800160010185558215610c59579182015b82811115610c58578251825591602001919060010190610c3d565b5b509050610c669190610cb6565b5090565b6040518060c00160405280600081526020016060815260200160608152602001600073ffffffffffffffffffffffffffffffffffffffff16815260200160008152602001600081525090565b5b80821115610ccf576000816000905550600101610cb7565b5090565b6000604051905090565b600080fd5b600080fd5b600073ffffffffffffffffffffffffffffffffffffffff82169050919050565b6000610d1282610ce7565b9050919050565b610d2281610d07565b8114610d2d57600080fd5b50565b600081359050610d3f81610d19565b92915050565b600060208284031215610d5b57610d5a610cdd565b5b6000610d6984828501610d30565b91505092915050565b60008115159050919050565b610d8781610d72565b82525050565b6000602082019050610da26000830184610d7e565b92915050565b6000819050919050565b610dbb81610da8565b82525050565b6000602082019050610dd66000830184610db2565b92915050565b600080fd5b600080fd5b6000601f19601f8301169050919050565b7f4e487b7100000000000000000000000000000000000000000000000000000000600052604160045260246000fd5b610e2f82610de6565b810181811067ffffffffffffffff82111715610e4e57610e4d610df7565b5b80604052505050565b6000610e61610cd3565b9050610e6d8282610e26565b919050565b600067ffffffffffffffff821115610e8d57610e8c610df7565b5b610e9682610de6565b9050602081019050919050565b82818337600083830152505050565b6000610ec5610ec084610e72565b610e57565b905082815260208101848484011115610ee157610ee0610de1565b5b610eec848285610ea3565b509392505050565b600082601f830112610f0957610f08610ddc565b5b8135610f19848260208601610eb2565b91505092915050565b600060208284031215610f3857610f37610cdd565b5b600082013567ffffffffffffffff811115610f5657610f55610ce2565b5b610f6284828501610ef4565b91505092915050565b600081519050919050565b600082825260208201905092915050565b6000819050602082019050919050565b6000610fa282610ce7565b9050919050565b610fb281610f97565b82525050565b610fc181610da8565b82525050565b600081519050919050565b600082825260208201905092915050565b60005b83811015611001578082015181840152602081019050610fe6565b83811115611010576000848401525b50505050565b600061102182610fc7565b61102b8185610fd2565b935061103b818560208601610fe3565b61104481610de6565b840191505092915050565b61105881610d07565b82525050565b600060c0830160008301516110766000860182610fb8565b506020830151848203602086015261108e8282611016565b915050604083015184820360408601526110a88282611016565b91505060608301516110bd606086018261104f565b5060808301516110d06080860182610fb8565b5060a08301516110e360a0860182610fb8565b508091505092915050565b60006080830160008301516111066000860182610fa9565b5060208301516111196020860182610fb8565b50604083015184820360408601526111318282611016565b9150506060830151848203606086015261114b828261105e565b9150508091505092915050565b600061116483836110ee565b905092915050565b6000602082019050919050565b600061118482610f6b565b61118e8185610f76565b9350836020820285016111a085610f87565b8060005b858110156111dc57848403895281516111bd8582611158565b94506111c88361116c565b925060208a019950506001810190506111a4565b50829750879550505050505092915050565b600060208201905081810360008301526112088184611179565b905092915050565b61121981610da8565b811461122457600080fd5b50565b60008135905061123681611210565b92915050565b600080600080600060a0868803121561125857611257610cdd565b5b600061126688828901610d30565b955050602086013567ffffffffffffffff81111561128757611286610ce2565b5b61129388828901610ef4565b945050604086013567ffffffffffffffff8111156112b4576112b3610ce2565b5b6112c088828901610ef4565b93505060606112d188828901611227565b92505060806112e288828901611227565b9150509295509295909350565b60006020828403121561130557611304610cdd565b5b600061131384828501611227565b91505092915050565b61132581610d07565b82525050565b6000602082019050611340600083018461131c565b92915050565b7f4e487b7100000000000000000000000000000000000000000000000000000000600052602260045260246000fd5b6000600282049050600182168061138d57607f821691505b6020821081036113a05761139f611346565b5b50919050565b6113af81610f97565b82525050565b60006020820190506113ca60008301846113a6565b92915050565b6000819050919050565b60006113f56113f06113eb84610ce7565b6113d0565b610ce7565b9050919050565b6000611407826113da565b9050919050565b6000611419826113fc565b9050919050565b6114298161140e565b82525050565b600082825260208201905092915050565b600061144b82610fc7565b611455818561142f565b9350611465818560208601610fe3565b61146e81610de6565b840191505092915050565b600060608201905061148e6000830186611420565b81810360208301526114a08185611440565b905081810360408301526114b48184611440565b9050949350505050565b6000815190506114cd81611210565b92915050565b6000602082840312156114e9576114e8610cdd565b5b60006114f7848285016114be565b91505092915050565b60006040820190506115156000830185611420565b61152260208301846113a6565b939250505056fea2646970667358221220746af6e1f5a6f5196b7ac0f8325c2b59c9d0aa6b92bd1f5f739ec2e093e5ff8b64736f6c634300080d0033",
  "deployedBytecode": "0x6080604052600436106100705760003560e01c80638894dd2b1161004e5780638894dd2b14610106578063a8a1d27314610110578063b55f65811461013b578063dd3f79761461016457610070565b80630e666e491461007557806312065fe0146100b257806377d2688a146100dd575b600080fd5b34801561008157600080fd5b5061009c60048036038101906100979190610d64565b6101a1565b6040516100a99190610dac565b60405180910390f35b3480156100be57600080fd5b506100c76101ff565b6040516100d49190610de0565b60405180910390f35b3480156100e957600080fd5b5061010460048036038101906100ff9190610f41565b610207565b005b61010e6105c4565b005b34801561011c57600080fd5b506101256105c6565b604051610132919061120d565b60405180910390f35b34801561014757600080fd5b50610162600480360381019061015d919061125b565b6108c3565b005b34801561017057600080fd5b5061018b6004803603810190610186919061130e565b610b80565b604051610198919061134a565b60405180910390f35b6000806000808473ffffffffffffffffffffffffffffffffffffffff1673ffffffffffffffffffffffffffffffffffffffff1681526020019081526020016000206000015414156101f557600090506101fa565b600190505b919050565b600047905090565b61020f610bbf565b33816000019073ffffffffffffffffffffffffffffffffffffffff16908173ffffffffffffffffffffffffffffffffffffffff1681525050428160200181815250508181604001819052506000803373ffffffffffffffffffffffffffffffffffffffff1673ffffffffffffffffffffffffffffffffffffffff1681526020019081526020016000206040518060c0016040529081600082015481526020016001820180546102bd90611394565b80601f01602080910402602001604051908101604052809291908181526020018280546102e990611394565b80156103365780601f1061030b57610100808354040283529160200191610336565b820191906000526020600020905b81548152906001019060200180831161031957829003601f168201915b5050505050815260200160028201805461034f90611394565b80601f016020809104026020016040519081016040528092919081815260200182805461037b90611394565b80156103c85780601f1061039d576101008083540402835291602001916103c8565b820191906000526020600020905b8154815290600101906020018083116103ab57829003601f168201915b505050505081526020016003820160009054906101000a900473ffffffffffffffffffffffffffffffffffffffff1673ffffffffffffffffffffffffffffffffffffffff1673ffffffffffffffffffffffffffffffffffffffff1681526020016004820154815260200160058201548152505081606001819052507f660d40315894f951e27119615133c7c0d2110b3650eaca398155f0bc7850e2f53360405161047291906113d5565b60405180910390a1600281908060018154018082558091505060019003906000526020600020906009020160009091909190915060008201518160000160006101000a81548173ffffffffffffffffffffffffffffffffffffffff021916908373ffffffffffffffffffffffffffffffffffffffff160217905550602082015181600101556040820151816002019080519060200190610513929190610c03565b50606082015181600301600082015181600001556020820151816001019080519060200190610543929190610c03565b506040820151816002019080519060200190610560929190610c03565b5060608201518160030160006101000a81548173ffffffffffffffffffffffffffffffffffffffff021916908373ffffffffffffffffffffffffffffffffffffffff1602179055506080820151816004015560a08201518160050155505050505050565b565b60606002805480602002602001604051908101604052809291908181526020016000905b828210156108ba57838290600052602060002090600902016040518060800160405290816000820160009054906101000a900473ffffffffffffffffffffffffffffffffffffffff1673ffffffffffffffffffffffffffffffffffffffff1673ffffffffffffffffffffffffffffffffffffffff1681526020016001820154815260200160028201805461067d90611394565b80601f01602080910402602001604051908101604052809291908181526020018280546106a990611394565b80156106f65780601f106106cb576101008083540402835291602001916106f6565b820191906000526020600020905b8154815290600101906020018083116106d957829003601f168201915b50505050508152602001600382016040518060c00160405290816000820154815260200160018201805461072990611394565b80601f016020809104026020016040519081016040528092919081815260200182805461075590611394565b80156107a25780601f10610777576101008083540402835291602001916107a2565b820191906000526020600020905b81548152906001019060200180831161078557829003601f168201915b505050505081526020016002820180546107bb90611394565b80601f01602080910402602001604051908101604052809291908181526020018280546107e790611394565b80156108345780601f1061080957610100808354040283529160200191610834565b820191906000526020600020905b81548152906001019060200180831161081757829003601f168201915b505050505081526020016003820160009054906101000a900473ffffffffffffffffffffffffffffffffffffffff1673ffffffffffffffffffffffffffffffffffffffff1673ffffffffffffffffffffffffffffffffffffffff1681526020016004820154815260200160058201548152505081525050815260200190600101906105ea565b50505050905090565b6108cc856101a1565b610b795760008060008773ffffffffffffffffffffffffffffffffffffffff1673ffffffffffffffffffffffffffffffffffffffff16815260200190815260200160002090506001816000018190555084816001019080519060200190610934929190610c03565b508381600201908051906020019061094d929190610c03565b50828160040181905550818160050181905550858160030160006101000a81548173ffffffffffffffffffffffffffffffffffffffff021916908373ffffffffffffffffffffffffffffffffffffffff1602179055506001869080600181540180825580915050600190039060005260206000200160009091909190916101000a81548173ffffffffffffffffffffffffffffffffffffffff021916908373ffffffffffffffffffffffffffffffffffffffff160217905550600073cf5712a30eff60a6b7d8424363360c8d90764c8d90508073ffffffffffffffffffffffffffffffffffffffff16634ceb48fd8888886040518463ffffffff1660e01b8152600401610a5c93929190611499565b602060405180830381600087803b158015610a7657600080fd5b505af1158015610a8a573d6000803e3d6000fd5b505050506040513d601f19601f82011682018060405250810190610aae91906114f3565b508073ffffffffffffffffffffffffffffffffffffffff16633365d35888306040518363ffffffff1660e01b8152600401610aea929190611520565b602060405180830381600087803b158015610b0457600080fd5b505af1158015610b18573d6000803e3d6000fd5b505050506040513d601f19601f82011682018060405250810190610b3c91906114f3565b507fa37017d0820c39dc09fba9c12e9eb5ca38d99df9c4829c63983a7308f58827ab8733604051610b6e929190611520565b60405180910390a150505b5050505050565b60018181548110610b9057600080fd5b906000526020600020016000915054906101000a900473ffffffffffffffffffffffffffffffffffffffff1681565b6040518060800160405280600073ffffffffffffffffffffffffffffffffffffffff1681526020016000815260200160608152602001610bfd610c89565b81525090565b828054610c0f90611394565b90600052602060002090601f016020900481019282610c315760008555610c78565b82601f10610c4a57805160ff1916838001178555610c78565b82800160010185558215610c78579182015b82811115610c77578251825591602001919060010190610c5c565b5b509050610c859190610cd5565b5090565b6040518060c00160405280600081526020016060815260200160608152602001600073ffffffffffffffffffffffffffffffffffffffff16815260200160008152602001600081525090565b5b80821115610cee576000816000905550600101610cd6565b5090565b6000604051905090565b600080fd5b600080fd5b600073ffffffffffffffffffffffffffffffffffffffff82169050919050565b6000610d3182610d06565b9050919050565b610d4181610d26565b8114610d4c57600080fd5b50565b600081359050610d5e81610d38565b92915050565b600060208284031215610d7a57610d79610cfc565b5b6000610d8884828501610d4f565b91505092915050565b60008115159050919050565b610da681610d91565b82525050565b6000602082019050610dc16000830184610d9d565b92915050565b6000819050919050565b610dda81610dc7565b82525050565b6000602082019050610df56000830184610dd1565b92915050565b600080fd5b600080fd5b6000601f19601f8301169050919050565b7f4e487b7100000000000000000000000000000000000000000000000000000000600052604160045260246000fd5b610e4e82610e05565b810181811067ffffffffffffffff82111715610e6d57610e6c610e16565b5b80604052505050565b6000610e80610cf2565b9050610e8c8282610e45565b919050565b600067ffffffffffffffff821115610eac57610eab610e16565b5b610eb582610e05565b9050602081019050919050565b82818337600083830152505050565b6000610ee4610edf84610e91565b610e76565b905082815260208101848484011115610f0057610eff610e00565b5b610f0b848285610ec2565b509392505050565b600082601f830112610f2857610f27610dfb565b5b8135610f38848260208601610ed1565b91505092915050565b600060208284031215610f5757610f56610cfc565b5b600082013567ffffffffffffffff811115610f7557610f74610d01565b5b610f8184828501610f13565b91505092915050565b600081519050919050565b600082825260208201905092915050565b6000819050602082019050919050565b6000610fc182610d06565b9050919050565b610fd181610fb6565b82525050565b610fe081610dc7565b82525050565b600081519050919050565b600082825260208201905092915050565b60005b83811015611020578082015181840152602081019050611005565b8381111561102f576000848401525b50505050565b600061104082610fe6565b61104a8185610ff1565b935061105a818560208601611002565b61106381610e05565b840191505092915050565b61107781610d26565b82525050565b600060c0830160008301516110956000860182610fd7565b50602083015184820360208601526110ad8282611035565b915050604083015184820360408601526110c78282611035565b91505060608301516110dc606086018261106e565b5060808301516110ef6080860182610fd7565b5060a083015161110260a0860182610fd7565b508091505092915050565b60006080830160008301516111256000860182610fc8565b5060208301516111386020860182610fd7565b50604083015184820360408601526111508282611035565b9150506060830151848203606086015261116a828261107d565b9150508091505092915050565b6000611183838361110d565b905092915050565b6000602082019050919050565b60006111a382610f8a565b6111ad8185610f95565b9350836020820285016111bf85610fa6565b8060005b858110156111fb57848403895281516111dc8582611177565b94506111e78361118b565b925060208a019950506001810190506111c3565b50829750879550505050505092915050565b600060208201905081810360008301526112278184611198565b905092915050565b61123881610dc7565b811461124357600080fd5b50565b6000813590506112558161122f565b92915050565b600080600080600060a0868803121561127757611276610cfc565b5b600061128588828901610d4f565b955050602086013567ffffffffffffffff8111156112a6576112a5610d01565b5b6112b288828901610f13565b945050604086013567ffffffffffffffff8111156112d3576112d2610d01565b5b6112df88828901610f13565b93505060606112f088828901611246565b925050608061130188828901611246565b9150509295509295909350565b60006020828403121561132457611323610cfc565b5b600061133284828501611246565b91505092915050565b61134481610d26565b82525050565b600060208201905061135f600083018461133b565b92915050565b7f4e487b7100000000000000000000000000000000000000000000000000000000600052602260045260246000fd5b600060028204905060018216806113ac57607f821691505b602082108114156113c0576113bf611365565b5b50919050565b6113cf81610fb6565b82525050565b60006020820190506113ea60008301846113c6565b92915050565b6000819050919050565b600061141561141061140b84610d06565b6113f0565b610d06565b9050919050565b6000611427826113fa565b9050919050565b60006114398261141c565b9050919050565b6114498161142e565b82525050565b600082825260208201905092915050565b600061146b82610fe6565b611475818561144f565b9350611485818560208601611002565b61148e81610e05565b840191505092915050565b60006060820190506114ae6000830186611440565b81810360208301526114c08185611460565b905081810360408301526114d48184611460565b9050949350505050565b6000815190506114ed8161122f565b92915050565b60006020828403121561150957611508610cfc565b5b6000611517848285016114de565b91505092915050565b60006040820190506115356000830185611440565b61154260208301846113c6565b939250505056fea26469706673582212202c8f311272a61359864202abe6432bb3148952181eab898bdb87a59287743ffa64736f6c63430008090033",
  "immutableReferences": {},
  "source": "pragma solidity ^0.8.9;\r\nimport './userData.sol';\r\ncontract baseContract {\r\n    struct User{\r\n        uint flag;\r\n        string name;\r\n        string mobile_no;\r\n        address payable account;\r\n        uint id;\r\n        uint256 payment_amt;\r\n    }\r\n\r\n    struct Update{\r\n        address _address;\r\n        uint256 timestamp;\r\n        string update;\r\n        User user;\r\n    }\r\n\r\n    event userAdded(address user_address, address sender);\r\n    event setUpdate(address sender);\r\n\r\n    mapping (address => User) users;\r\n    address payable [] public addressUsers;\r\n\r\n    Update [] updates;\r\n\r\n    constructor(string memory name, string memory mobile_no, address payable _address) {\r\n        User storage user = users[_address];\r\n\r\n        user.flag = 1;\r\n        user.name = name;\r\n        user.mobile_no = mobile_no;\r\n        user.id = 1;\r\n        user.payment_amt = 0;\r\n        user.account = _address;\r\n\r\n        addressUsers.push(_address);\r\n        userData usd = userData(0xCF5712a30efF60A6b7d8424363360C8D90764c8D);\r\n        usd.addContractAddress(_address, address(this));\r\n    }\r\n\r\n    function userExists(address payable _address) public view returns (bool){\r\n        if(users[_address].flag == 0){\r\n            return false;\r\n        }\r\n        return true;\r\n    }\r\n\r\n    function addUser(address payable _address, string memory name, string memory mobile_no, uint id, uint256 payment_amt) public{\r\n        if(!userExists(_address)){\r\n            User storage user = users[_address];\r\n\r\n            user.flag = 1;\r\n            user.name = name;\r\n            user.mobile_no = mobile_no;\r\n            user.id = id;\r\n            user.payment_amt = payment_amt;\r\n            user.account = _address;\r\n\r\n            addressUsers.push(_address);\r\n            \r\n\r\n            userData usd = userData(0xCF5712a30efF60A6b7d8424363360C8D90764c8D);\r\n            usd.createUser(_address, name, mobile_no);\r\n            usd.addContractAddress(_address, address(this));\r\n\r\n            emit userAdded(_address, msg.sender);\r\n            //usd.createUser(_address, name, mobile_no);\r\n        }\r\n    }\r\n\r\n    function setUpdates(string memory _update) public {\r\n        Update memory update;\r\n        update._address = msg.sender;\r\n        update.timestamp = block.timestamp;\r\n        update.update = _update;\r\n        update.user = users[msg.sender];\r\n\r\n        emit setUpdate(msg.sender);\r\n        updates.push(update);\r\n    }\r\n\r\n    function getUpdates() public view returns(Update [] memory){\r\n        return updates;\r\n    }\r\n  \r\n    function addEther() external payable{}\r\n\r\n    function getBalance() public view returns(uint256){\r\n        return address(this).balance;\r\n    } \r\n\r\n}\r\n\r\n",
  "sourcePath": "D:\\github\\LogiChain\\contracts\\baseContract.sol",
  "compiler": {
    "name": "solc",
    "version": "0.8.9+commit.e5eed63a.Emscripten.clang"
  },
  "schemaVersion": "3.4.3",
  "updatedAt": "2021-11-24T16:41:36.820Z",
  "devdoc": {
    "kind": "dev",
    "methods": {},
    "version": 1
  },
  "userdoc": {
    "kind": "user",
    "methods": {},
    "version": 1
  }
}