{
  "contractName": "userData",
  "abi": [
    {
      "anonymous": false,
      "inputs": [
        {
          "indexed": false,
          "internalType": "address",
          "name": "user",
          "type": "address"
        },
        {
          "indexed": false,
          "internalType": "string",
          "name": "name",
          "type": "string"
        }
      ],
      "name": "userCreated",
      "type": "event"
    },
    {
      "inputs": [
        {
          "internalType": "address",
          "name": "user_address",
          "type": "address"
        },
        {
          "internalType": "address",
          "name": "contract_address",
          "type": "address"
        }
      ],
      "name": "addContractAddress",
      "outputs": [
        {
          "internalType": "uint256",
          "name": "",
          "type": "uint256"
        }
      ],
      "stateMutability": "nonpayable",
      "type": "function"
    },
    {
      "inputs": [
        {
          "internalType": "address",
          "name": "_address",
          "type": "address"
        },
        {
          "internalType": "string",
          "name": "name",
          "type": "string"
        },
        {
          "internalType": "string",
          "name": "mobile_no",
          "type": "string"
        }
      ],
      "name": "createUser",
      "outputs": [
        {
          "internalType": "uint256",
          "name": "",
          "type": "uint256"
        }
      ],
      "stateMutability": "nonpayable",
      "type": "function"
    },
    {
      "inputs": [
        {
          "internalType": "address",
          "name": "_address",
          "type": "address"
        }
      ],
      "name": "findUser",
      "outputs": [
        {
          "components": [
            {
              "internalType": "uint256",
              "name": "flag",
              "type": "uint256"
            },
            {
              "internalType": "string",
              "name": "name",
              "type": "string"
            },
            {
              "internalType": "string",
              "name": "mobile_no",
              "type": "string"
            },
            {
              "internalType": "address",
              "name": "account_address",
              "type": "address"
            },
            {
              "internalType": "address[]",
              "name": "contracts",
              "type": "address[]"
            }
          ],
          "internalType": "struct userData.user",
          "name": "",
          "type": "tuple"
        }
      ],
      "stateMutability": "view",
      "type": "function"
    },
    {
      "inputs": [
        {
          "internalType": "address",
          "name": "user_address",
          "type": "address"
        }
      ],
      "name": "getContractAddress",
      "outputs": [
        {
          "internalType": "address[]",
          "name": "",
          "type": "address[]"
        }
      ],
      "stateMutability": "view",
      "type": "function"
    }
  ],
  "bytecode": "0x608060405234801561001057600080fd5b50610e82806100206000396000f3fe608060405234801561001057600080fd5b506004361061004c5760003560e01c80633365d358146100515780634ceb48fd14610081578063622bc90e146100b1578063df9d9024146100e1575b600080fd5b61006b60048036038101906100669190610864565b610111565b60405161007891906108bd565b60405180910390f35b61009b60048036038101906100969190610a1e565b610213565b6040516100a891906108bd565b60405180910390f35b6100cb60048036038101906100c69190610aa9565b6103d1565b6040516100d89190610b94565b60405180910390f35b6100fb60048036038101906100f69190610aa9565b6104a0565b6040516101089190610d40565b60405180910390f35b600060016000808573ffffffffffffffffffffffffffffffffffffffff1673ffffffffffffffffffffffffffffffffffffffff168152602001908152602001600020600001541415610208576000808473ffffffffffffffffffffffffffffffffffffffff1673ffffffffffffffffffffffffffffffffffffffff168152602001908152602001600020600401829080600181540180825580915050600190039060005260206000200160009091909190916101000a81548173ffffffffffffffffffffffffffffffffffffffff021916908373ffffffffffffffffffffffffffffffffffffffff1602179055506001905061020d565b600090505b92915050565b600060016000808673ffffffffffffffffffffffffffffffffffffffff1673ffffffffffffffffffffffffffffffffffffffff16815260200190815260200160002060000154146103c55760008060008673ffffffffffffffffffffffffffffffffffffffff1673ffffffffffffffffffffffffffffffffffffffff168152602001908152602001600020905060018160000181905550838160010190805190602001906102c292919061070a565b50828160020190805190602001906102db92919061070a565b50848160030160006101000a81548173ffffffffffffffffffffffffffffffffffffffff021916908373ffffffffffffffffffffffffffffffffffffffff1602179055506001859080600181540180825580915050600190039060005260206000200160009091909190916101000a81548173ffffffffffffffffffffffffffffffffffffffff021916908373ffffffffffffffffffffffffffffffffffffffff1602179055507f793452bfa09c2f1473de9e71cf726590fccd45eb04c4be138b36826dc5d8e62685856040516103b3929190610dbb565b60405180910390a160019150506103ca565b600090505b9392505050565b60606000808373ffffffffffffffffffffffffffffffffffffffff1673ffffffffffffffffffffffffffffffffffffffff16815260200190815260200160002060040180548060200260200160405190810160405280929190818152602001828054801561049457602002820191906000526020600020905b8160009054906101000a900473ffffffffffffffffffffffffffffffffffffffff1673ffffffffffffffffffffffffffffffffffffffff168152602001906001019080831161044a575b50505050509050919050565b6104a8610790565b6000808373ffffffffffffffffffffffffffffffffffffffff1673ffffffffffffffffffffffffffffffffffffffff1681526020019081526020016000206040518060a00160405290816000820154815260200160018201805461050b90610e1a565b80601f016020809104026020016040519081016040528092919081815260200182805461053790610e1a565b80156105845780601f1061055957610100808354040283529160200191610584565b820191906000526020600020905b81548152906001019060200180831161056757829003601f168201915b5050505050815260200160028201805461059d90610e1a565b80601f01602080910402602001604051908101604052809291908181526020018280546105c990610e1a565b80156106165780601f106105eb57610100808354040283529160200191610616565b820191906000526020600020905b8154815290600101906020018083116105f957829003601f168201915b505050505081526020016003820160009054906101000a900473ffffffffffffffffffffffffffffffffffffffff1673ffffffffffffffffffffffffffffffffffffffff1673ffffffffffffffffffffffffffffffffffffffff168152602001600482018054806020026020016040519081016040528092919081815260200182805480156106fa57602002820191906000526020600020905b8160009054906101000a900473ffffffffffffffffffffffffffffffffffffffff1673ffffffffffffffffffffffffffffffffffffffff16815260200190600101908083116106b0575b5050505050815250509050919050565b82805461071690610e1a565b90600052602060002090601f016020900481019282610738576000855561077f565b82601f1061075157805160ff191683800117855561077f565b8280016001018555821561077f579182015b8281111561077e578251825591602001919060010190610763565b5b50905061078c91906107d5565b5090565b6040518060a00160405280600081526020016060815260200160608152602001600073ffffffffffffffffffffffffffffffffffffffff168152602001606081525090565b5b808211156107ee5760008160009055506001016107d6565b5090565b6000604051905090565b600080fd5b600080fd5b600073ffffffffffffffffffffffffffffffffffffffff82169050919050565b600061083182610806565b9050919050565b61084181610826565b811461084c57600080fd5b50565b60008135905061085e81610838565b92915050565b6000806040838503121561087b5761087a6107fc565b5b60006108898582860161084f565b925050602061089a8582860161084f565b9150509250929050565b6000819050919050565b6108b7816108a4565b82525050565b60006020820190506108d260008301846108ae565b92915050565b600080fd5b600080fd5b6000601f19601f8301169050919050565b7f4e487b7100000000000000000000000000000000000000000000000000000000600052604160045260246000fd5b61092b826108e2565b810181811067ffffffffffffffff8211171561094a576109496108f3565b5b80604052505050565b600061095d6107f2565b90506109698282610922565b919050565b600067ffffffffffffffff821115610989576109886108f3565b5b610992826108e2565b9050602081019050919050565b82818337600083830152505050565b60006109c16109bc8461096e565b610953565b9050828152602081018484840111156109dd576109dc6108dd565b5b6109e884828561099f565b509392505050565b600082601f830112610a0557610a046108d8565b5b8135610a158482602086016109ae565b91505092915050565b600080600060608486031215610a3757610a366107fc565b5b6000610a458682870161084f565b935050602084013567ffffffffffffffff811115610a6657610a65610801565b5b610a72868287016109f0565b925050604084013567ffffffffffffffff811115610a9357610a92610801565b5b610a9f868287016109f0565b9150509250925092565b600060208284031215610abf57610abe6107fc565b5b6000610acd8482850161084f565b91505092915050565b600081519050919050565b600082825260208201905092915050565b6000819050602082019050919050565b610b0b81610826565b82525050565b6000610b1d8383610b02565b60208301905092915050565b6000602082019050919050565b6000610b4182610ad6565b610b4b8185610ae1565b9350610b5683610af2565b8060005b83811015610b87578151610b6e8882610b11565b9750610b7983610b29565b925050600181019050610b5a565b5085935050505092915050565b60006020820190508181036000830152610bae8184610b36565b905092915050565b610bbf816108a4565b82525050565b600081519050919050565b600082825260208201905092915050565b60005b83811015610bff578082015181840152602081019050610be4565b83811115610c0e576000848401525b50505050565b6000610c1f82610bc5565b610c298185610bd0565b9350610c39818560208601610be1565b610c42816108e2565b840191505092915050565b600082825260208201905092915050565b6000610c6982610ad6565b610c738185610c4d565b9350610c7e83610af2565b8060005b83811015610caf578151610c968882610b11565b9750610ca183610b29565b925050600181019050610c82565b5085935050505092915050565b600060a083016000830151610cd46000860182610bb6565b5060208301518482036020860152610cec8282610c14565b91505060408301518482036040860152610d068282610c14565b9150506060830151610d1b6060860182610b02565b5060808301518482036080860152610d338282610c5e565b9150508091505092915050565b60006020820190508181036000830152610d5a8184610cbc565b905092915050565b610d6b81610826565b82525050565b600082825260208201905092915050565b6000610d8d82610bc5565b610d978185610d71565b9350610da7818560208601610be1565b610db0816108e2565b840191505092915050565b6000604082019050610dd06000830185610d62565b8181036020830152610de28184610d82565b90509392505050565b7f4e487b7100000000000000000000000000000000000000000000000000000000600052602260045260246000fd5b60006002820490506001821680610e3257607f821691505b60208210811415610e4657610e45610deb565b5b5091905056fea2646970667358221220cc2398d12afd2a89d16a68f70f2343bfdbfb654422bd06f20eed00284c12f89164736f6c63430008090033",
  "immutableReferences": {},
  "source": "pragma solidity ^0.8.9;\r\ncontract userData{\r\n    struct user{\r\n        uint flag;\r\n        string name;\r\n        string mobile_no;\r\n        address account_address;\r\n        address[] contracts;\r\n    }\r\n\r\n    event userCreated(address user, string name);\r\n    \r\n    mapping(address => user) private users;\r\n    address[] private addr;\r\n    \r\n    function createUser(address _address, string memory name, string memory mobile_no) public returns(uint){\r\n        if(users[_address].flag != 1){\r\n            user storage u = users[_address];\r\n            \r\n            u.flag = 1;\r\n            u.name = name;\r\n            u.mobile_no = mobile_no;\r\n            u.account_address = _address;\r\n            \r\n            addr.push(_address);\r\n            emit userCreated(_address, name);\r\n            return 1;\r\n        }\r\n        return 0;\r\n    }\r\n    \r\n    function findUser(address _address) public view returns(user memory){\r\n        return users[_address];\r\n    }\r\n    \r\n    function addContractAddress(address user_address, address contract_address) public returns(uint){\r\n        if(users[user_address].flag == 1){\r\n            users[user_address].contracts.push(contract_address);\r\n            return 1;\r\n        }\r\n        return 0;\r\n    }\r\n    \r\n    function getContractAddress(address user_address) public view returns(address[] memory){\r\n        return users[user_address].contracts;\r\n    }\r\n}",
  "sourcePath": "D:\\github\\LogiChain\\contracts\\userData.sol",
  "compiler": {
    "name": "solc",
    "version": "0.8.9+commit.e5eed63a.Emscripten.clang"
  },
  "schemaVersion": "3.4.3",
  "updatedAt": "2021-11-24T16:41:36.831Z",
  "devdoc": {
    "kind": "dev",
    "methods": {},
    "version": 1
  },
  "userdoc": {
    "kind": "user",
    "methods": {},
    "version": 1
  }
}